:03000000020407F0
:0C040700787FE4F6D8FD75813602044EC3
:1002D40075270FE4F5287E007F00FD7C801205F26F
:1002E4007D017F321208897F007E007D807C3F1271
:1002F400087BC2047529FC752A6612062EC2047591
:1003040029FF752A07752B1E1207D8C204D20512BD
:1003140007C1300042C2001207788F27EF640F60D4
:1003240005D204120814E52724F9602024FC601285
:1003340024FD6007047020D2048002C204120871F4
:1003440080157FCD7ECC7DCC7C3D80087F007E00F7
:100354007D807C3F12087B3001B8C20112036F8F8D
:0B03640028EF60AED20412081480A73E
:10071E00E51F75F06484E5F07004D200D201120674
:0F072E00D91205A5051FE51F75F0C88485F01FBA
:01073D002299
:0308240001340F8D
:1007780075B00FAFB0BF0F0AE534640F6004AE3434
:0807880080027E0F8F34AF06E2
:010790002246
:10036F00859029E4FEF52AF97590FFA80674800898
:10037F008002C313D8FCF4F590E590F4540F146089
:10038F001314601B24FE602224FC60292408702FA4
:10039F00E4FF802FEE25E025E02404FF098024EE02
:1003AF0025E025E02403FF098019EE25E025E02450
:1003BF0002FF09800EEE25E025E004FF0980047F8F
:1003CF00110909E9D394014005752A11800BEF60DB
:1003DF0002F52A0EEE6404708F852990E52A7010BD
:1003EF00C39535500BE535C394115004AE358002DB
:0703FF007E00852A35AF06E0
:0104060022D3
:05088400EFF4F5A022D5
:10062E00A204E43314601B04702EAF298F088F8C44
:10063E00AF2A8F0A8F8AE58954F04401F589D2A931
:10064E008016AF298F098F8DAF2A8F0B8F8BE5897F
:0B065E00540F4410F589D2ABD2AF223C
:1007C10020040A200503C38001D3928C2220050353
:0707D100C38001D3928E22C8
:1007D80020040A85290C852A0D852B0E2285290FD0
:0707E800852A10852B112268
:03000B0002050BE0
:10050B00C0E0C0F0C083C082C0D075D000C000C0B6
:10051B0001C002C003C004C005C006C00785088C1B
:10052B00850A8AE50D450E450C6007AA0DA90E122A
:10053B0002CED007D006D005D004D003D002D00114
:0D054B00D000D0D0D082D083D0F0D0E032EC
:03001B0002055883
:10055800C0E0C0F0C083C082C0D075D000C000C069
:1005680001C002C003C004C005C006C00785098DCC
:10057800850B8BE5104511450F6007AA10A91112CC
:1005880002CED007D006D005D004D003D002D001C7
:0D059800D000D0D0D082D083D0F0D0E0329F
:050889008F2D8D2E22D1
:100814002004047F0080027F018F2FA2A59206226C
:1006D900E52FB4011DE52CB52D0AE4F52FF52CA263
:1006E9000692A522E52C852EF084E5F07002B2A5CC
:0206F900052CCE
:0106FB0022DC
:100802001C1814100C0804003F065B4F666D7D0730
:020812007F6FF6
:0C0841008B148A1589168D13E4F517221C
:10066900E4F512E5172512FFE433FEAD137C001201
:10067900026BAB14AA15A9168D828C8312023E90C7
:10068900080A93F580E51290080293F5A012083341
:090699000512E512C3940840CAE1
:0106A2002235
:0C084D000517E5178513F08485F01722CD
:10079100E5172513FFE433CF24FFCF34FFFEAD135C
:0807A1007C0012026B8D17228F
:10073E00D2A5C2A6D2A7A2879203C2A7A203E43370
:0F074E0020E0F1C2A5A20292A68F80D2A7C2A777
:01075D002279
:1006A300E4F536C2A5C2A6758038D2A7C2A7120048
:1006B3000E0536E536C3940540E9C2027F381207BA
:1006C3003EC2027F0612073EC2027F0112073EC2EC
:0606D300027F0F02073E4A
:07000300C2027F0102073E6B
:05088E00D20202073E4A
:10075E00AE07A207E43375F040A42D4480FFC20219
:0A076E0012073EAF06D20202073E5A
:1007EF00120225FF600C12088E740129F9E43AFAFF
:0307FF0080EE2267
:1006FC00120225FF6009A208920712075E800912F8
:10070C000225FF600C12088E740129F9E43AFA8074
:02071C00EE22CB
:0C0859008B198A1A891B8D18E4F51C22EB
:10049300E4F51D7580FFE4F51EE51C251DFFE4331F
:1004A300FEAD187C0012026BAB19AA1AA91B8D8230
:1004B3008C8312023EFD7C007E007480A81E08809F
:1004C30006CEA2E713CE13D8F8FFEE5CFCEF5DB5C2
:1004D3000708EEB50404D2B48002C2B4C2B6D2B6E1
:1004E300051EE51EB408B2C2B5D2B5AF1DA8077488
:1004F30080088002C313D8FCF4F580120833051D6D
:07050300E51DC39408408CC4
:01050A0022CE
:0C086500051CE51C8518F08485F01C22A1
:1007A900E51C2518FFE433CF24FFCF34FFFEAD1835
:0807B9007C0012026B8D1C2272
:09087B008F268E258D248C23228A
:0A087100200403C38001D392092282
:1005A500300947E4FFFE7D207C41AB26AA25A9241E
:1005B500A82312001EC004C005C006C007AC22E473
:1005C5001201A7A804A905AA06AB07D007D006D033
:1005D50005D0041201245004D2908002C290052255
:0C05E500E52275F00A8485F02222C29005
:0105F10022E7
:0D08330000753004753192D531FDD530FAD5
:010840002295
:0C000E007532127533EBD533FDD532FA94
:01001A0022C3
:10001E00EC4D6011E8497017ED33EC3304600DE4DC
:10002E00FCFFFEFD22E933E8330470F802021012E1
:10003E0001DB58046009E4CC2481500628500902E3
:10004E00021A284003020217C0E0EB4A7044B9803E
:10005E0006D0E0FB020206EF4E701CBD8008EBFFDF
:10006E00EAFEE9FD80EBE98DF0A4FEE5F002010762
:10007E00E9CDF9EAFEEBFFEF89F0A4FCE5F0CE89BD
:10008E00F0A42EFFE435F0CD89F0A42DFEE435F07A
:10009E008067EF4E7005BD80D780C3EF8BF0A4ACA8
:1000AE00F0EE8BF0A42CFCE435F0F8EF8AF0A42CE3
:1000BE00E5F038FCE433CB8DF0A42CFCE5F03BF8F6
:1000CE00EE8AF0A42CFCE5F038F8E433CF89F0A4E6
:1000DE002CFCE5F038CF3400CE89F0A42FFFE5F0EC
:1000EE003EFEE433C98DF0A42EFEE5F039CD8AF044
:1000FE00A42FFFE5F03EFEE43DFD33D0E0FB5007BC
:10010E000BBB000F02021AEC2CFCEF33FFEE33FE9A
:06011E00ED33FD0201F2C9
:1001240074F8CC6480CCC86480C8F58204604FC382
:10013400EB9FF5F0EA9E42F0E99D42F0E89C45F021
:10014400603C501DE5825FFFE582D313CB5BCBF4AB
:100154002B5582FB50280ABA002409B900200880D4
:100164001DE5825BFBE582D313CF5FCFF4C3132F6E
:100174005582FF50090EBE00050DBD00010CC3EBF6
:100184009FF5F0EA9E42F0E99D42F0E89C45F0605C
:0901940007CC4820E701B3EC227E
:10019D0075F020800E75F010800575F0087D007EDD
:1001AD00007F003392D530D5031202C0EC334010DE
:1001BD00EF33FFEE33FEED33FDEC33FCD5F0ED22E6
:0E01CD00E5F0247EA2D513CC92E7CDCEFF2222
:1001DB00E9D2E7C933E833F892D5EDD2E7CD33EC6A
:0701EB0033FC5002B2D522E3
:1001F200EC30E7100FBF000C0EBE00080DBD00046E
:100202000BEB6014A2D5EB13FCED92E7FD2274FF19
:10021200FCFDFEFF22E480F8A2D574FF13FC7D8072
:03022200E480EF86
:100413000202D4E493A3F8E493A34003F68001F229
:1004230008DFF48029E493A3F85407240CC8C333EA
:10043300C4540F4420C8834004F456800146F6DFB9
:10044300E4800B0102040810204080900824E47E1D
:10045300019360BCA3FF543F30E509541FFEE493AE
:10046300A360010ECF54C025E060A840B8E493A375
:10047300FAE493A3F8E493A3C8C582C8CAC583CAA0
:10048300F0A3C8C582C8CAC583CADFE9DEE780BE58
:0108270000D0
:10022500BB010689828A83E0225002E722BBFE02D7
:09023500E32289828A83E493220A
:10023E00BB010CE58229F582E5833AF583E0225075
:10024E0006E92582F8E622BBFE06E92582F8E222BF
:0D025E00E58229F582E5833AF583E49322D9
:10026B00BC000BBE0029EF8DF084FFADF022E4CC77
:10027B00F875F008EF2FFFEE33FEEC33FCEE9DEC40
:10028B00984005FCEE9DFE0FD5F0E9E4CEFD22ED86
:10029B00F8F5F0EE8420D21CFEADF075F008EF2FD0
:1002AB00FFED33FD4007985006D5F0F222C398FDC1
:0502BB000FD5F0EA225E
:0E02C000C3E49FFFE49EFEE49DFDE49CFC224F
:0602CE008A838982E473BB
:0B0828004880000000000000000000FD
:1005F200EF4E7008FE7F01ED1D70011C908000EE31
:10060200F0A3EFF0A3ECF0A3EDF0908000E0FEA3E6
:10061200E0FFF5828E83E4F0A3F0ED24FCFDEC34E0
:0C062200FF8F828E83A3A3F0A3EDF022D3
:00000001FF
